:100000000C9462000C948A000C948A000C948A0070
:100010000C948A000C948A000C948A000C948A0038
:100020000C948A000C948A000C948A000C948A0028
:100030000C948A000C948A000C948A000C948A0018
:100040000C9499040C948A000C9467040C94410459
:100050000C948A000C948A000C948A000C948A00F8
:100060000C948A000C948A000000000024002700F1
:100070002A0000000000250028002B0000000000DE
:1000800023002600290004040404040404040202DA
:100090000202020203030303030301020408102007
:1000A0004080010204081020010204081020000012
:1000B0000008000201000003040700000000000027
:1000C0000000E30411241FBECFEFD8E0DEBFCDBF98
:1000D00011E0A0E0B1E0EAE8FEE002C005900D9278
:1000E000AE37B107D9F722E0AEE7B1E001C01D920B
:1000F000A634B207E1F710E0C2E6D0E004C02197D1
:10010000FE010E940707C136D107C9F70E945705B3
:100110000C9443070C940000AF92BF92CF92DF92F1
:10012000EF92FF920F931F93CF93DF936C017B01AC
:100130008B01040F151FEB015E01AE18BF08C0173D
:10014000D10759F06991D601ED91FC910190F081B0
:10015000E02DC6010995892B79F7C501DF91CF9173
:100160001F910F91FF90EF90DF90CF90BF90AF90D5
:100170000895FC01538D448D252F30E0842F90E0AD
:10018000821B930B541710F0CF9608950197089592
:10019000FC01918D828D981761F0A28DAE0FBF2F5B
:1001A000B11D5D968C91928D9F5F9F73928F90E0B1
:1001B00008958FEF9FEF0895FC01918D828D981720
:1001C00031F0828DE80FF11D858D90E008958FEF5D
:1001D0009FEF0895FC01918D228D892F90E0805C26
:1001E0009F4F821B91098F739927089587E891E0AB
:1001F0000E94EA0021E0892B09F420E0822F089573
:1002000080E090E0892B29F00E94F60081110C9487
:1002100000000895FC01A48DA80FB92FB11DA35AA9
:10022000BF4F2C91848D90E001968F739927848F16
:10023000A689B7892C93A089B1898C918370806439
:100240008C93938D848D981306C00288F389E02DDA
:1002500080818F7D80830895EF92FF920F931F938B
:10026000CF93DF93EC0181E0888F9B8D8C8D981369
:100270001AC0E889F989808185FF15C09FB7F89475
:10028000EE89FF896083E889F989808183708064C1
:1002900080839FBF81E090E0DF91CF911F910F910C
:1002A000FF90EF900895F62E0B8D10E00F5F1F4F1B
:1002B0000F731127E02E8C8D8E110CC00FB607FC2A
:1002C000FACFE889F989808185FFF5CFCE010E94B8
:1002D0000A01F1CFEB8DEC0FFD2FF11DE35AFF4F1B
:1002E000F0829FB7F8940B8FEA89FB898081806246
:1002F000CFCFCF93DF93EC01888D8823B9F0AA8903
:10030000BB89E889F9898C9185FD03C0808186FDD0
:100310000DC00FB607FCF7CF8C9185FFF2CF80811F
:1003200085FFEDCFCE010E940A01E9CFDF91CF9189
:100330000895833081F028F4813099F08230A9F05B
:1003400008958730A9F08830C9F08430B1F48091E5
:1003500080008F7D03C0809180008F778093800024
:10036000089584B58F7784BD089584B58F7DFBCFC4
:100370008091B0008F778093B00008958091B00095
:100380008F7DF9CF1F93CF93DF93282F30E0F901B2
:10039000E255FF4F8491F901E656FF4FD491F901E0
:1003A000EA57FF4FC491CC23A9F0162F81110E9468
:1003B0009901EC2FF0E0EE0FFF1FEE58FF4FA591D3
:1003C000B4918FB7F894EC91111108C0D095DE2349
:1003D000DC938FBFDF91CF911F910895DE2BF8CF73
:1003E000CF93DF93C4E2D2E060E08E810E94C2012D
:1003F00060E08F810E94C20161E08E810E94C20193
:1004000061E08F81DF91CF910C94C201CF93DF9394
:10041000C4E2D2E061E08E810E94C20161E08F817E
:100420000E94C20160E08F810E94C20160E08E8163
:10043000DF91CF910C94C201CF93DF93EC018091B7
:10044000340290913502029749F4C130D10509F484
:100450003BC06CF560E0209709F437C0809134020E
:1004600090913502049749F4C130D10509F45CC07C
:100470000CF037C0209709F442C08091340290916B
:100480003502059709F0E5C0CA30D10508F0E1C092
:10049000FE01E35BFD4F0C940707AC02B802C902F2
:1004A000DF02FA02FC0203030F0320032703C2301A
:1004B000D105A9F060E0C330D10581F68091380202
:1004C0000E94C20160E006C061E0809138020E9493
:1004D000C20161E080913A020E94C201BFCF61E097
:1004E000EDCFC230D10539F1C330D10509F0C5CF08
:1004F00061E0809138020E94C20160E022C061E0A8
:10050000809138020E94C20160E080913A020E940C
:10051000C20161E080913C020E94C20160E08091D2
:100520003E020E94C201A9CF60E0809138020E9481
:10053000C20161E0EACF60E0809138020E94C2010E
:1005400061E080913A020E94C20160E080913C0229
:100550000E94C20161E0E3CF60E0809138020E9416
:10056000C20161E080913A020E94C20161E00BC0C9
:1005700060E0809138020E94C20161E080913A02FD
:100580000E94C20160E080913C020E94C20160E0D2
:1005900010C060E0809138020E94C20161E0809149
:1005A0003A020E94C20160E080913C020E94C201B6
:1005B00061E080913E020E94C20161E015C060E0EE
:1005C000809138020E94C20161E080913A020E944B
:1005D000C20160E080913C020E94C20161E0809112
:1005E0003E020E94C20160E080914002DF91CF9103
:1005F0000C94C20161E0E4CF61E0809138020E9476
:10060000C20160E0E2CF61E0809138020E94C20145
:1006100060E080913A020E94C20161E0DBCF61E0BC
:10062000809138020E94C20160E080913A020E94EB
:10063000C20161E080913C020E94C20160E0CFCF24
:1006400061E0809138020E94C20160E08BCF60E0DF
:10065000F8CFDF91CF910895CF93DF9390E0FC0125
:10066000E656FF4F24918A579F4FFC0184918823BF
:10067000D1F090E0880F991FFC01E859FF4FA59138
:10068000B491FC01EE58FF4FC591D49161110EC099
:100690009FB7F8948C91E22FE0958E238C9328815C
:1006A000E223E8839FBFDF91CF9108958FB7F8943D
:1006B000EC91E22BEC938FBFF6CF0F931F93CF9368
:1006C000DF93D82FC8E060E080912A020E94C20127
:1006D0000D2F0D2E000C110B61E0D0FF60E080911A
:1006E0002B020E94C20115950795D02F61E08091E1
:1006F0002A020E94C201C15031F760E080912A02B3
:100700000E94C20161E080912B020E94C20161E05F
:1007100080912A020E94C20160E080912B020E9417
:100720002C0383EC90E00197F1F720912B0230E04D
:10073000F901E255FF4F8491F901E656FF4FD4913C
:10074000F901EA57FF4FC491CC2381F181110E9436
:100750009901EC2FF0E0EE0FFF1FE458FF4FA59139
:10076000B491EC91ED23C1E0D0E009F4C0E0C111F7
:100770000AC061E080912B020E942C0360E080910E
:100780002B020E94C20103EC10E0C8010197F1F7AF
:1007900061E080912B020E942C03C8010197F1F7C0
:1007A000CE01DF91CF911F910F910895C0E0D0E06D
:1007B000E0CFCF93DF93D82FE62F6F37D9F1603199
:1007C00040F50E2E000CFF0BE55AFE4F80819091F4
:1007D0002702C0E09111C0E8C80F0E94060284E41D
:1007E0000E945D030E94F0010E9406028D2F806C22
:1007F0000E945D038C2F0E945D030E94F0010E9405
:100800000602809126020E945D03DF91CF910C9435
:10081000F00180ED860F8A3030F40E2E000CFF0BB5
:10082000E55DFE4FD3CFE052EB3520F4F0E0E05031
:10083000FF4FCCCF80E0CBCF3FB7F89480918301BE
:1008400090918401A0918501B091860126B5A89B65
:1008500005C02F3F19F00196A11DB11D3FBFBA2F52
:10086000A92F982F8827BC01CD01620F711D811D12
:10087000911D42E0660F771F881F991F4A95D1F797
:1008800008951F920F920FB60F9211242F933F934A
:100890004F935F936F937F938F939F93AF93BF9388
:1008A000EF93FF9387E891E00E940A01FF91EF9197
:1008B000BF91AF919F918F917F916F915F914F9178
:1008C0003F912F910F900FBE0F901F9018951F9280
:1008D0000F920FB60F9211242F938F939F93EF9344
:1008E000FF93E0919701F09198018081E0919D0143
:1008F000F0919E0182FD1BC090818091A0018F5FCD
:100900008F732091A101821741F0E091A001F0E0E6
:10091000E957FE4F958F8093A001FF91EF919F9132
:100920008F912F910F900FBE0F901F90189580817F
:10093000F4CF1F920F920FB60F9211242F933F9373
:100940008F939F93AF93BF9380917F01909180018C
:10095000A0918101B091820130917E0123E0230FAB
:100960002D3758F50196A11DB11D20937E0180936E
:100970007F0190938001A0938101B09382018091C7
:10098000830190918401A0918501B0918601019627
:10099000A11DB11D8093830190938401A0938501D3
:1009A000B0938601BF91AF919F918F913F912F910D
:1009B0000F900FBE0F901F90189526E8230F0296F8
:1009C000A11DB11DD2CFCF93DF93E7E8F1E01382F1
:1009D000128288EE93E0A0E0B0E084839583A68342
:1009E000B7838FE691E09183808385EC90E09587D3
:1009F000848784EC90E09787868780EC90E0918BE9
:100A0000808B81EC90E0938B828B82EC90E0958BD5
:100A1000848B86EC90E0978B868B118E128E138ED2
:100A2000148ECCE2D2E01B861A86198218821E8AA6
:100A30001F8A188E198E86EF97E09F838E8388E039
:100A400090E09D878C878AE090E09F878E8789E081
:100A500090E0998B888B8BE090E09B8B8A8B61E098
:100A600088E00E942C0361E08E850E942C0361E0E7
:100A700088890E942C0361E08A890E942C031D8AC8
:100A80001C8A84E090E099878887C4E2D2E09D8345
:100A90008C8381E18E8380E18F8361E081E10E941C
:100AA0002C0361E08F81DF91CF910C942C0378941B
:100AB00084B5826084BD84B5816084BD85B5826063
:100AC00085BD85B5816085BD80916E008160809314
:100AD0006E0010928100809181008260809381007D
:100AE000809181008160809381008091800081608D
:100AF000809380008091B10084608093B1008091E8
:100B0000B00081608093B00080917A00846080930F
:100B10007A0080917A00826080937A0080917A00D6
:100B2000816080937A0080917A00806880937A0057
:100B30001092C100E0919701F091980182E08083CA
:100B4000E0919301F09194011082E0919501F09170
:100B500096018FEC808310929F01E0919B01F091B0
:100B60009C0186E08083E0919901F0919A01808157
:100B700080618083E0919901F0919A018081886081
:100B80008083E0919901F0919A018081806880834F
:100B9000E0919901F0919A0180818F7D808320916D
:100BA000320230913302032E000C440B550B60E0EF
:100BB00077E883E993E00E94E806CA01B90120E1E1
:100BC00030E040E050E00E94E80620932E0230938F
:100BD0002F0240933002509331026FE780E00E9471
:100BE000D9036FE781E00E94D9036FE782E00E949A
:100BF000D9036FE783E00E94D90380E48093240245
:100C000080EC809325028FE880932602222423948F
:100C1000312C2AE0E22EF12C30E0C32E30E0D32E2E
:100C200030922D0220922C02C6EFD7E0209709F4D3
:100C300068C00E941C04009142021091430220915E
:100C40004402309145022B013C01401A510A620ACC
:100C5000730A00912E0210912F02209130023091E0
:100C60003102401651066206730600F36093420299
:100C70007093430280934402909345028091360220
:100C80009091370220912C0230912D0221303105B4
:100C900021F501969093370280933602209132021B
:100CA000309133028217930721F410923702109289
:100CB00036022197809136029091370220913402BA
:100CC00030913502B7012530310511F064E070E054
:100CD0000E94D4060E941C02A9CF892B41F4809166
:100CE00032029091330290933702809336028091C2
:100CF0003602909137020197909337028093360223
:100D0000D8CF06EF17E02091280230912902C217B0
:100D1000D307BCF42C1B3D0B215031096FE70115A3
:100D2000110529F0C801B7010E94D406682F822F4F
:100D30000E94D903C801B7010E94D4068B012196F5
:100D4000E2CF109227020E941C044B015C0188EE46
:100D5000482E83E0582E612C712C0E941C046819C7
:100D600079098A099B09683E734081059105A8F3BA
:100D700021E0421A51086108710888EE880E83E06C
:100D8000981EA11CB11C411451046104710429F77F
:100D9000C114D10409F444CF0E94F600882309F459
:100DA0003FCF0E9400003CCF97FB072E16F4009423
:100DB00007D077FD09D00E940D0707FC05D03EF44F
:100DC000909581959F4F0895709561957F4F0895F7
:100DD000052E97FB1EF400940E94FF0657FD07D0D6
:100DE0000E94210707FC03D04EF40C94FF06509597
:100DF0004095309521953F4F4F4F5F4F0895909507
:100E00008095709561957F4F8F4F9F4F0895EE0F9E
:100E1000FF1F0590F491E02D0994AA1BBB1B51E123
:100E200007C0AA1FBB1FA617B70710F0A61BB70B5A
:100E3000881F991F5A95A9F780959095BC01CD01FF
:100E40000895A1E21A2EAA1BBB1BFD010DC0AA1F0B
:100E5000BB1FEE1FFF1FA217B307E407F50720F023
:100E6000A21BB30BE40BF50B661F771F881F991F9E
:100E70001A9469F760957095809590959B01AC01E7
:0A0E8000BD01CF010895F894FFCFE3
:100E8A0000000000000000000000630000400000B5
:100E9A000000000000000000000000000000000048
:100EAA0000777C395E79713576061E753837545C61
:100EBA00737B506D781C3E7E766E1B000000010825
:100ECA00005F7C585E797135740416753837545C46
:100EDA007367506D781C3E2A766E1B3F065B4F6621
:100EEA006D7D077F6F777C395E7971000000002C79
:0E0EFA00018C00B9007901EA00C800DC00009C
:00000001FF
