:100000000C945D000C947A000C947A000C947A00A5
:100010000C947A000C947A000C947A000C94C00032
:100020000C947A000C947A000C947A000C947A0068
:100030000C947A000C947A000C947A000C947A0058
:100040000C9483010C947A000C947A000C947A003E
:100050000C947A000C947A000C947A000C947A0038
:100060000C947A000C947A00000000080002010051
:100070000003040700000000000000000200000070
:1000800000250028002B0000000000240027002A83
:100090000004040404040404040202020202020331
:1000A000030303030301020408102040800102043B
:1000B0000810200102040810200011241FBECFEFF9
:1000C000D8E0DEBFCDBF11E0A0E0B1E0EAE3F6E0AA
:1000D00002C005900D92A230B107D9F721E0A2E04D
:1000E000B1E001C01D92AC31B207E1F70E94CD0131
:1000F0000C941B030C94000090E0FC01EB55FF4FA7
:1001000024918F569F4FFC018491882399F090E0B1
:10011000880F991FFC01E957FF4FA591B491FC018D
:10012000E358FF4F859194918FB7F894EC91E22BAF
:10013000EC938FBF08953FB7F89480910701909199
:100140000801A0910901B0910A0126B5A89B05C03C
:100150002F3F19F00196A11DB11D3FBFBA2FA92F46
:10016000982F8827BC01CD01620F711D811D911D43
:1001700042E0660F771F881F991F4A95D1F70895AF
:100180001F920F920FB60F9211242F933F938F93CC
:100190009F93AF93BF93EF93FF9380911001909142
:1001A0001101A0911201B0911301892B8A2B8B2B85
:1001B000B1F190910B01E0910C01F0910D01808162
:1001C000892780838091100190911101A0911201E3
:1001D000B0911301181619061A061B069CF480919B
:1001E000100190911101A0911201B091130101979A
:1001F000A109B1098093100190931101A0931201FC
:10020000B0931301FF91EF91BF91AF919F918F91A7
:100210003F912F910F900FBE0F901F9018958091D6
:100220000001ECE7F0E0E4919FEF90930001E130F2
:1002300009F431C068F1E23009F433C090E0FC0108
:10024000E859FF4F2491FC01EB55FF4F3491FC011D
:10025000EF56FF4FE491EE23A9F2222351F0233011
:1002600009F43AC078F5213009F43CC0223009F491
:100270003DC0F0E0EE0FFF1FE358FF4FA591B49192
:100280008FB7F894EC9130953E233C938FBFBACF53
:1002900010926E00D3CF90916F009D7F90936F006E
:1002A000CDCF909170009D7F9093700091E09093DE
:1002B000B0009091B100987F94609093B10010923B
:1002C000B300BCCF2730A9F02830C9F0243089F61C
:1002D000809180008F7D03C0809180008F77809314
:1002E0008000C7CF84B58F7784BDC3CF84B58F7DA1
:1002F000FBCF8091B0008F778093B000BACF809110
:10030000B0008F7DF9CF1F920F920FB60F9211247C
:100310002F933F938F939F93AF93BF93809103014C
:1003200090910401A0910501B09106013091020164
:1003300023E0230F2D3758F50196A11DB11D209301
:1003400002018093030190930401A0930501B093EF
:1003500006018091070190910801A0910901B091D7
:100360000A010196A11DB11D809307019093080118
:10037000A0930901B0930A01BF91AF919F918F9112
:100380003F912F910F900FBE0F901F90189526E868
:10039000230F0296A11DB11DD2CF789484B582603F
:1003A00084BD84B5816084BD85B5826085BD85B519
:1003B000816085BD80916E00816080936E00109297
:1003C0008100809181008260809381008091810012
:1003D00081608093810080918000816080938000A3
:1003E0008091B10084608093B1008091B000816001
:1003F0008093B00080917A00846080937A0080912D
:100400007A00826080937A0080917A008160809384
:100410007A0080917A00806880937A001092C100FF
:1004200088E00E947C000E949B004B015C0130E24E
:10043000C32E33E0D32EE12CF12C0E949B006819CF
:1004400079098A099B09683E734081059105A8F3E3
:1004500021E0C21AD108E108F10888EE880E83E095
:10046000981EA11CB11CC114D104E104F10429F7A8
:1004700080910001883049F08F3FE9F0C0E0D0E082
:100480002097F1F30E940000FBCFECE7F0E0C4916D
:10049000C7FDF4CF88E00E947C00CC2309F478C02B
:1004A000C23009F08DC08091B100887F8460809354
:1004B000B1008FECACC088E080930001ECE7F0E085
:1004C000C491CF3FD9F2C13019F148F0C23009F4DC
:1004D0003DC0C7FDD3CF88E00E947C00E1CF14BCB3
:1004E00015BC84B5826084BD85B5816085BDE9E9B0
:1004F000F0E0E491F0E0EE0FFF1FE358FF4F85912D
:100500009491EDEAF0E0E491E0930F01C0E0C2CFF6
:100510001092800010928100809181008860809309
:10052000810080918100816080938100E9E9F0E0A1
:10053000E491F0E0EE0FFF1FE358FF4F8591949197
:10054000EDEAF0E0E491E0930E01A4CF1092B00048
:100550001092B1008091B00082608093B0008091D1
:10056000B10081608093B100E9E9F0E0E491F0E04E
:10057000EE0FFF1FE358FF4F8591949190930D016B
:1005800080930C01EDEAF0E0E491E0930B0182CF5F
:1005900085B5887F836085BD8FEC87BD88E691E057
:1005A000A0E0B0E08093180190931901A0931A0184
:1005B000B0931B0180916E00826080936E005ECFCD
:1005C000C130F1F480918100887F81608093810047
:1005D00084E194E3909389008093880088E691E019
:1005E000A0E0B0E08093140190931501A093160150
:1005F000B093170180916F00826080936F003ECFAF
:10060000C23021F0C1113ACF84E1C7CF84E1809399
:10061000B30088E691E0A0E0B0E0809310019093F1
:100620001101A0931201B0931301809170008260B8
:0A0630008093700023CFF894FFCFF1
:02063A00FF00BF
:107E0000112484B714BE81FFF0D085E080938100F7
:107E100082E08093C00088E18093C10086E0809377
:107E2000C20080E18093C4008EE0C9D0259A86E02C
:107E300020E33CEF91E0309385002093840096BBD3
:107E4000B09BFECF1D9AA8958150A9F7CC24DD24C4
:107E500088248394B5E0AB2EA1E19A2EF3E0BF2EE7
:107E6000A2D0813461F49FD0082FAFD0023811F036
:107E7000013811F484E001C083E08DD089C08234E0
:107E800011F484E103C0853419F485E0A6D080C0E4
:107E9000853579F488D0E82EFF2485D0082F10E0AE
:107EA000102F00270E291F29000F111F8ED06801E7
:107EB0006FC0863521F484E090D080E0DECF843638
:107EC00009F040C070D06FD0082F6DD080E0C81688
:107ED00080E7D80618F4F601B7BEE895C0E0D1E017
:107EE00062D089930C17E1F7F0E0CF16F0E7DF06D8
:107EF00018F0F601B7BEE89568D007B600FCFDCFD4
:107F0000A601A0E0B1E02C9130E011968C91119780
:107F100090E0982F8827822B932B1296FA010C0160
:107F200087BEE89511244E5F5F4FF1E0A038BF0790
:107F300051F7F601A7BEE89507B600FCFDCF97BE46
:107F4000E89526C08437B1F42ED02DD0F82E2BD052
:107F50003CD0F601EF2C8F010F5F1F4F84911BD097
:107F6000EA94F801C1F70894C11CD11CFA94CF0C13
:107F7000D11C0EC0853739F428D08EE10CD085E9AC
:107F80000AD08FE07ACF813511F488E018D01DD067
:107F900080E101D065CF982F8091C00085FFFCCF94
:107FA0009093C60008958091C00087FFFCCF809118
:107FB000C00084FD01C0A8958091C6000895E0E648
:107FC000F0E098E1908380830895EDDF803219F02E
:107FD00088E0F5DFFFCF84E1DECF1F93182FE3DFCA
:107FE0001150E9F7F2DF1F91089580E0E8DFEE27F6
:047FF000FF270994CA
:027FFE00040479
:0400000300007E007B
:00000001FF
