:100000000C9462000C947F000C947F000C947F0091
:100010000C947F000C947F000C947F000C9475016D
:100020000C947F000C947F000C947F000C947F0054
:100030000C947F000C947F000C947F000C947F0044
:100040000C942B010C947F000C947F000C947F0087
:100050000C947F000C947F000C947F000C947F0024
:100060000C947F000C947F00000000002400270007
:100070002A000000000023002600290000000008DC
:10008000000201000003040700000000000000005F
:10009000010204081020408001020408102001021F
:1000A0000408102000000000250028002B00040494
:1000B0000404040404040202020202020303030310
:1000C0000303020011241FBECFEFD8E0DEBFCDBF77
:1000D00011E0A0E0B1E0E8E5F6E002C005900D9285
:1000E000A230B107D9F721E0A2E0B1E001C01D9232
:1000F000AC31B207E1F70E94D1010C942A030C94B1
:100100000000833081F028F4813099F08230A9F02A
:1001100008958730A9F08830C9F08430B1F4809117
:1001200080008F7D03C0809180008F778093800056
:10013000089584B58F7784BD089584B58F7DFBCFF6
:100140008091B0008F778093B00008958091B000C7
:100150008F7DF9CFCF93DF939091000189130BC06E
:10016000E2ECF0E0E4919FEF90930001E13059F16F
:1001700038F1E23071F1282F30E0F901E458FF4FF7
:100180008491F901E057FF4FD491F901E255FF4FF7
:10019000C491CC2391F081110E948100EC2FF0E0FA
:1001A000EE0FFF1FEC55FF4FA591B4918FB7F89458
:1001B000EC91D095DE23DC938FBFDF91CF91089532
:1001C00010926E00D8CF90916F009D7F90936F003A
:1001D000D2CF909170009D7F9093700091E09093AA
:1001E000B0009091B100987F94609093B10010920C
:1001F000B300C1CFCF93DF9390E0FC01E057FF4FF6
:10020000249182559F4FFC0184918823D1F090E086
:10021000880F991FFC01E859FF4FA591B491FC018B
:10022000EC55FF4FC591D49161110EC09FB7F89462
:100230008C91E22FE0958E238C932881E223E88332
:100240009FBFDF91CF9108958FB7F894EC91E22B87
:10025000EC938FBFF6CF1F920F920FB60F9211241F
:100260002F933F938F939F93AF93BF9380911801E8
:1002700090911901A0911A01B0911B0130911701C1
:1002800023E0230F2D3758F50196A11DB11D2093B2
:1002900017018093180190931901A0931A01B0934C
:1002A0001B018091130190911401A0911501B0914F
:1002B00016010196A11DB11D8093130190931401A5
:1002C000A0931501B0931601BF91AF919F918F91AB
:1002D0003F912F910F900FBE0F901F90189526E819
:1002E000230F0296A11DB11DD2CF1F920F920FB600
:1002F0000F9211242F933F934F935F936F937F93AC
:100300008F939F93AF93BF93EF93FF9380910701D8
:1003100090910801A0910901B0910A01892B8A2BC3
:100320008B2BD1F190910201E0910301F091040136
:100330008081892780838091070190910801A09195
:100340000901B0910A01181619061A061B069CF439
:100350008091070190910801A0910901B0910A01D3
:100360000197A109B1098093070190930801A09317
:100370000901B0930A01FF91EF91BF91AF919F9155
:100380008F917F916F915F914F913F912F910F903E
:100390000FBE0F901F901895809100010E94AA0037
:1003A000EACF789484B5826084BD84B5816084BDD1
:1003B00085B5826085BD85B5816085BD80916E0003
:1003C000816080936E001092810080918100826034
:1003D0008093810080918100816080938100809171
:1003E00080008160809380008091B1008460809360
:1003F000B1008091B00081608093B00080917A005C
:10040000846080937A0080917A00826080937A0081
:1004100080917A00816080937A0080917A00806870
:1004200080937A001092C10060E082E00E94FA009E
:1004300061E088E00E94FA0052E9252E50E0352E56
:1004400060EB462E60E0562E7FE0C72E77E2D72E77
:10045000E2ECEE2EE0E0FE2E08E910E0812CF5E063
:100460009F2EA12CB12C40E0642E40E0742EEEE7CC
:10047000F0E08491F101C491F201D491DD2309F4FB
:10048000E5C081110E948100ED2FF0E0EE0FFF1F0B
:10049000EE58FF4FA591B4918C918C2309F4D6C0EE
:1004A000809100018830B1F4F701C491C7FDB0C05C
:1004B00061E088E00E94FA00CC2309F47CC0C230DD
:1004C00009F08DC08091B100887F84608093B10075
:1004D0008BE9ACC08F3F09F09BC088E0809300019E
:1004E000F701C491CF3F09F493C0C13021F150F01E
:1004F000C23009F43EC0C7FD8BC061E088E00E94B5
:10050000FA00DDCF14BC15BC84B5826084BD85B50E
:10051000816085BDE6EBF0E08491E82FF0E0EE0F1E
:10052000FF1FEC55FF4F85919491F80184918093C2
:100530000601C0E0BDCF1092800010928100809132
:100540008100886080938100809181008160809328
:100550008100E6EBF0E08491E82FF0E0EE0FFF1F62
:10056000EC55FF4F85919491F8018491809305019A
:100570009FCF1092B0001092B1008091B0008260C5
:100580008093B0008091B10081608093B100E6EB70
:10059000F0E08491E82FF0E0EE0FFF1FEC55FF4FE5
:1005A000859194919093040180930301F8018491C3
:1005B000809302017DCF85B5887F836085BD8BE9FF
:1005C00087BD80920F0190921001A0921101B0920C
:1005D000120180916E00826080936E0019C0C1305C
:1005E000F1F480918100887F816080938100D092B6
:1005F0008900C092880080920B0190920C01A09219
:100600000D01B0920E0180916F00826080936F00A7
:100610006114710409F42BCF0E94000024CFC23072
:1006200021F0C111F5CF8FE0CBCF8FE08093B300E5
:100630008092070190920801A0920901B0920A01EC
:1006400080917000826080937000E2CF88E00E9409
:08065000AA00DECFF894FFCFF1
:02065800FF00A1
:00000001FF
